:0200000069286D
:10000800F000030E83120313A0000A08A1008A015E
:100018000408A2008C1E1B28BC0A3C08503A03198D
:10002800BC01A0303C07840083131A0880000B1D14
:100038002B28AD0A2D081E3A031D2628AD01AE084F
:10004800031D05122D082E06031905160B1122088B
:10005800840021088A00200E8300F00E700E09002B
:10006800A700003003178F000313270C7F39513E78
:1000780003178D0003188F0A83168C170C140000C1
:1000880000008312031327184D2803170C087F3923
:10009800080003170C0D0E0D08002010201053380F
:1000A80061396B237537AE31EF3600102010A02967
:1000B8006539CC2144107619AE1A0029E539653A1C
:1000C800203A6F10391B301800008316031365227D
:1000D8003C083D0603196C28BD0A3D08503A03192F
:1000E800BD01A0303D07840083130008AA00FE3A32
:1000F800031D9E283C083D0603197E28BD0A3D08BD
:10010800503A0319BD01A0303D078400831300084D
:10011800AA002A0E0F39033A031994282A08F8234B
:100128002A0B9828AB016C28AA1F6C287F302A0557
:10013800AB006C282A087C3A031DB3283C083D060E
:100148000319A228BD0A3D08503A0319BD01A03081
:100158003D07840083130008AA0087216C282A0819
:10016800083A031D3B29403031072B06031DC728D9
:1001780039033107F8232030CF2339033107F82317
:100188003503AB006C282B083106031DDC28380327
:100198003107F8232030CF2338033107F8233403FD
:1001A800AB0012302B0784008313203080006C28AA
:1001B8002B08403A031DF12837033107F823203074
:1001C800CF2337033107F8233303AB003E302B0727
:1001D80084008313203080006C28AB08031D1B2982
:1001E800320B012937033107F8232030CF23370397
:1001F8003107F8233303AB006C283208023A031D99
:10020800102938033107F8232030CF23380331076A
:10021800F8233403AB006C283A033107F823203065
:10022800CF233A033107F8233603AB006C2810308C
:10023800F8232030CF231030F823AB0310302B02E3
:1002480003182C293E302B078400831320308000AC
:1002580040302B02031C6C2850302B0203186C28EA
:1002680012302B0784008313203080006C282A0862
:10027800CF2314302B02031847293E302B07840064
:1002880083132A08800040302B02031C5529543060
:100298002B020318552912302B07840083132A08D0
:1002A8008000AB0A2B083306031D6529320B602931
:1002B800AB013708F8236C284030AB003808F82326
:1002C8006C282B083406031D76293208023A031DD0
:1002D8007129AB013708F8236C283108AB003908BD
:1002E800F8236C282B083506031D7F293408AB003A
:1002F8003A08F8236C282B083606031D6C28AB0136
:100308003708F8236C282A0B8F291E30AE00A50069
:10031800033089244D2A2A08023A031D9929AE017F
:100328002E08A500033089244D2A2A08033A031D04
:10033800A3291430B100A500013089244D2A2A08C8
:10034800043A031DAD291030B100A50001308924FD
:100358004D2A2A08053A031DB7290430B200A50022
:10036800023089244D2A2A08063A031DC029023082
:10037800B200A50089244D2A2A08073A031DCA2974
:100388000130B200A500023089244D2A2A08083A13
:10039800031DD02999224D2A2A08093A031DDF296D
:1003A8002C0BD829AC01DA290130AC002C08A500A7
:1003B800043089244D2A2A080A3A031DFC29A3017E
:1003C8001430230203184D2A3E3023078400831378
:1003D8000008A5000530230789245230230784002C
:1003E80083130008A500193023078924A30AE429E8
:1003F8002A080B3A031D072ABB0130243B08A50035
:100408002D3089244D2A2A080C3A031D132A01305D
:10041800BB0030243B08A5002D3089244D2A2A082A
:100428000D3A031D1F2A0230BB0030243B08A500EB
:100438002D3089244D2A2A080E3A031D2B2A033011
:10044800BB0030243B08A5002D3089244D2A2A08FA
:100458000F3A031D372A0430BB0030243B08A5009F
:100468002D3089244D2A2A08103A031D432A0530C5
:10047800BB0030243B08A5002D3089244D2A80304C
:100488002A02031C4D2A1F302A05AE00A50003309E
:1004980089243108B30040303107B40031083107EE
:1004A800B500403031073107B6008030B700C030A2
:1004B800B80080303104B900403031078038BA00C4
:1004C80008009B01103083128500E03083168500F8
:1004D80083128601EC30831686008312BD01BC01AD
:1004E8004030831699002430980090308312980089
:1004F8008316181583128C1283168C160B1751301D
:1005080081008B168B178312A30114302302031862
:10051800992A3E3023078400831380015230230731
:10052800840083138001A30A892AB923061286103E
:100538006430A500A6016724051485140614061066
:100548003230A500A6016724061406100A30A5005B
:10055800A6016724061406100A30A500A601672420
:100568000510061406100C30F8230130F82300306B
:100578007F24AF0002302F02031CC42A0130AF00D1
:100588002F08A500003089242F08031D051603191C
:10059800051203307F24AE001F302E02031CD62A1A
:1005A8001E30AE002E08A5000330892401307F24B8
:1005B800B10051303102031CE32A1430B100310874
:1005C800A500013089243108B30040303107B40058
:1005D80031083107B500403031073107B6008030A7
:1005E800B700C030B80080303104B900403031075E
:1005F8008038BA00052B0230B200122B0430B2004A
:10060800122B02307F24B20009303202031C0E2B59
:100618000430B2003208A5000230892404307F2457
:10062800AC0002302C02031C1B2B0130AC002C0840
:10063800A50004308924AC08031D492BE830A50027
:100648000330A6006724BC080319442B831621082D
:100658008312A400123A031D422B0230BB0030243F
:100668003B08A5002D3089242130A5002024E8303E
:10067800A5000330A60067240130F823BC01A42B91
:100688002D307F24BB003024A42B2C0BA42B053049
:100698007F24A400240A0319732B3808F823A40123
:1006A8001430240203185E2B053024077F24CF233F
:1006B800A40A542B3908F823A4011430240203187F
:1006C8006B2B193024077F24CF23A40A612BE83031
:1006D800A5000330A60067240130F823832B3808CF
:1006E800F823A50120243908F8231130A500202477
:1006F800E830A5000330A60067240130F823BC08C1
:100708000319A02B831621088312A400123A031D93
:100718009E2B0230BB0030243B08A5002D308924D5
:100728002130A5002024E830A5000330A600672466
:100738000130F823BC01A42B2D307F24BB003024CA
:10074800A401103024020318B72B3E30240784007C
:100758008313203080005230240784008313203014
:100768008000A40AA52BAB01080029140F308316BA
:100778008504831286140612291CCA2B0614291014
:1007880085192914061006140610C02BF03083169C
:10079800850583120800A700B92386100616271EB0
:1007A8000510271A0514A71E8510A71A8514271FD8
:1007B8000511271B0515A71F8511A71B85150614ED
:1007C8000610271C051027180514A71C8510A71844
:1007D8008514271D051127190515A71D8511A719AA
:1007E8008515061406100800A500B9238610251ED5
:1007F8000510251A0514A51E8510A51A8514251F90
:100808000511251B0515A51F8511A51B85150614A2
:100818000610251C051025180514A51C8510A518FB
:100828008514251D051125190515A51D8511A51961
:100838008515061406100800A60126082507342089
:10084800003A031303192F2C260825073420031315
:10085800CF23A60A212C0800BB08031D372CFF3024
:1008680083169900652C3B0B3D2C8030831699002C
:10087800652C3B08023A031D452C4030831699002D
:10088800652C3B08033A031D4D2C2B308316990029
:10089800652C3B08043A031D552C1F30831699001C
:1008A800652C3B08053A031D5D2C0F308316990013
:1008B800652C40308316990002308312A5002D3034
:1008C8008924831208002508260403197E2CA70111
:1008D800043027020318792CA80145302802031890
:1008E800772CA80A712CA70A6C2CA503250A0319D2
:1008F800A603672C0800A50003178D0083168C1328
:100908000C1483120C0803130800A60027108B1B75
:1009180027140D1203178D000313250803178C00E5
:1009280083168C130C158B1355308D00AA308D004F
:100938008C14831203130D1E9F2C831603170C119E
:0E09480083120313271C8B1327188B1708002C
:02400E00023F6F
:00000001FF
