:0200000067286F
:10000800F000030E83120313A0000A08A1008A015E
:100018000408A2008C1E1B28BC0A3C08503A03198D
:10002800BC01A0303C07840083131A0880000B1D14
:100038002B28AD0A2D081E3A031D2628AD01AE084F
:10004800031D05122D082E06031905160B1122088B
:10005800840021088A00200E8300F00E700E09002B
:10006800A7002B302702031800348A0127088207CB
:100078002034203453347034613472346B34463451
:1000880075346E342E3463346F346D340034203458
:1000980020345334653472344C344334443420347B
:1000A800763432342E343534003452346534733473
:1000B80065347434203474346F342034393436342D
:1000C80030343034003483160313642283123C081E
:1000D8003D0603196B28BD0A3D08503A0319BD01B6
:1000E800A0303D07840083130008AA00FE3A031DD0
:1000F8009D283C083D0603197D28BD0A3D08503A55
:100108000319BD01A0303D07840083130008AA002D
:100118002A0E0F39033A031993282A08E5232A0BD4
:100128009728AB016B28AA1F6B287F302A05AB00E4
:100138006B282A087C3A031DB2283C083D0603199F
:10014800A128BD0A3D08503A0319BD01A0303D075A
:10015800840083130008AA0086216B282A08083A1D
:10016800031D3A29403031072B06031DC6283903E1
:100178003107E5232030BC2339033107E523350354
:10018800AB006B282B083106031DDB283803310729
:10019800E5232030BC2338033107E5233403AB00C3
:1001A80012302B0784008313203080006B282B0823
:1001B800403A031DF02837033107E5232030BC23DC
:1001C80037033107E5233303AB003E302B078400A8
:1001D8008313203080006B28AB08031D1A29320BCB
:1001E800002937033107E5232030BC2337033107C3
:1001F800E5233303AB006B283208023A031D0F29AD
:1002080038033107E5232030BC2338033107E523C1
:100218003403AB006B283A033107E5232030BC23B5
:100228003A033107E5233603AB006B281030E5238A
:100238002030BC231030E523AB0310302B02031809
:100248002B293E302B078400831320308000403058
:100258002B02031C6B2850302B0203186B2812301A
:100268002B0784008313203080006B282A08BC23C6
:1002780010302B02031846293E302B0784008313C5
:100288002A08800040302B02031C542950302B02CE
:100298000318542912302B07840083132A0880007E
:1002A800AB0A2B083306031D6429320B5F29AB0107
:1002B8003708E5236B284030AB003808E5236B2866
:1002C8002B083406031D75293208023A031D7029CC
:1002D800AB013708E5236B283108AB003908E52363
:1002E8006B282B083506031D7E293408AB003A0815
:1002F800E5236B282B083606031D6B28AB0137084E
:10030800E5236B282A0B8E291E30AE00A50003308A
:1003180074244C2A2A08023A031D9829AE012E0893
:10032800A500033074244C2A2A08033A031DA22985
:100338001430B100A500013074244C2A2A08043A6C
:10034800031DAC291030B100A500013074244C2ADB
:100358002A08053A031DB6290430B200A500023068
:1003680074244C2A2A08063A031DBF290230B20019
:10037800A50074244C2A2A08073A031DC92901300C
:10038800B200A500023074244C2A2A08083A031D3A
:10039800CF2989224C2A2A08093A031DDE292C0B69
:1003A800D729AC01D9290130AC002C08A5000430AC
:1003B80074244C2A2A080A3A031DFB29A301103089
:1003C800230203184C2A3E302307840083130008B5
:1003D800A5000530230774245230230784008313B3
:1003E8000008A500193023077424A30AE3292A0862
:1003F8000B3A031D062ABB011B243B08A5002D3020
:1004080074244C2A2A080C3A031D122A0130BB0016
:100418001B243B08A5002D3074244C2A2A080D3AC9
:10042800031D1E2A0230BB001B243B08A5002D30EB
:1004380074244C2A2A080E3A031D2A2A0330BB00CA
:100448001B243B08A5002D3074244C2A2A080F3A97
:10045800031D362A0430BB001B243B08A5002D30A1
:1004680074244C2A2A08103A031D422A0530BB007E
:100478001B243B08A5002D3074244C2A80302A0206
:10048800031C4C2A1F302A05AE00A5000330742433
:100498003108B30040303107B40031083107B500E6
:1004A800403031073107B6008030B700C030B8009F
:1004B80080303104B900403031078038BA00080074
:1004C8009B01103083128500E0308316850083126B
:1004D8008601EC30831686008312BD01BC014030D2
:1004E8008316990024309800903083129800831660
:1004F800181583128C1283168C160B175130810035
:100508008B168B178922831608008312A6230612DE
:1005180086106430A500A60152240514851406141B
:1005280006103230A500A6015224061406100A301F
:10053800A500A6015224061406100A30A500A6013B
:1005480052240510061406100C30E5230130E5236B
:1005580000306A24AF0002302F02031CB52A013094
:10056800AF002F08A500003074242F08031D0516BE
:100578000319051203306A24AE001F302E02031C33
:10058800C72A1E30AE002E08A5000330742401309F
:100598006A24B10051303102031CD42A1030B10052
:1005A8003108A500013074243108B3004030310708
:1005B800B40031083107B500403031073107B600C3
:1005C8008030B700C030B80080303104B900403006
:1005D80031078038BA00F62A0230B200032B043003
:1005E800B200032B02306A24B20009303202031C25
:1005F800FF2A0230B2003208A50002307424043009
:100608006A24AC0002302C02031C0C2B0130AC0015
:100618002C08A50004307424AC08031D3A2BE830DC
:10062800A5000330A6005224BC080319352B8316F5
:1006380021088312A400123A031D332B0230BB0099
:100648001B243B08A5002D3074241D30A5000D2463
:10065800E830A5000330A60052240130E523BC0190
:10066800912B2D306A24BB001B24912B2C0B912B32
:1006780005306A24A400240A0319622BA40110304F
:10068800240203184D2B053024076A24BC23A40A2E
:10069800432BC030E523A4011030240203185A2B41
:1006A800193024076A24BC23A40A502BE830A5007B
:1006B8000330A60052240130E523702BA5010D2438
:1006C800C030E5230F30A5000D24E830A500033025
:1006D800A60052240130E523BC0803198D2B83168C
:1006E80021088312A400123A031D8B2B0230BB0091
:1006F8001B243B08A5002D3074241D30A5000D24B3
:10070800E830A5000330A60052240130E523BC01DF
:10071800912B2D306A24BB001B24A4011030240225
:100728000318A42B3E302407840083132030800054
:10073800523024078400831320308000A40A922BAF
:10074800AB01080029140F30831685048312861420
:100758000612291CB72B061429108519291406100E
:1007680006140610AD2BF030831685058312080099
:10077800A700A62386100616271E0510271A05149B
:10078800A71E8510A71A8514271F0511271B0515F5
:10079800A71F8511A71B851506140610271C051011
:1007A80027180514A71C8510A7188514271D0511DF
:1007B80027190515A71D8511A719851506140610F3
:1007C8000800A500A6238610251E0510251A051465
:1007D800A51E8510A51A8514251F0511251B0515AD
:1007E800A51F8511A51B851506140610251C0510C7
:1007F80025180514A51C8510A5188514251D051197
:1008080025190515A51D8511A519851506140610A8
:100818000800A601260825073420003A03191A2CD7
:10082800260825073420BC23A60A0E2C0800BB087E
:10083800031D222CFF3083169900502C3B0B282CCB
:10084800803083169900502C3B08023A031D302C47
:10085800403083169900502C3B08033A031D382C6E
:100868002B3083169900502C3B08043A031D402C6A
:100878001F3083169900502C3B08053A031D482C5D
:100888000F3083169900502C40308316990002309F
:100898008312A5002D30742483120800250826042D
:1008A8000319692CA701043027020318642CA80136
:1008B800453028020318622CA80A5C2CA70A572C7A
:1008C800A503250A0319A603522C0800A50003173F
:1008D8008D0083168C130C1483120C080313080064
:1008E800A60027108B1B27140D1203178D00031366
:1008F800250803178C0083168C130C158B135530A1
:100908008D00AA308D008C14831203130D1E8A2CBF
:10091800831603170C1183120313271C8B13271834
:040928008B17080021
:02400E00023F6F
:00000001FF
