:0200000067286F
:10000800F000030E83120313A0000A08A1008A015E
:100018000408A2008C1E1B28BC0A3C08503A03198D
:10002800BC01A0303C07840083131A0880000B1D14
:100038002B28AD0A2D081E3A031D2628AD01AE084F
:10004800031D05112D082E06031905150B1122088D
:10005800840021088A00200E8300F00E700E09002B
:10006800A7002B302702031800348A0127088207CB
:100078002034203453347034613472346B34463451
:1000880075346E342E3463346F346D340034203458
:1000980020345334653472344C344334443420347B
:1000A800763432342E343534003452346534733473
:1000B80065347434203474346F342034393436342D
:1000C80030343034003483160313642283123C081E
:1000D8003D0603196B28BD0A3D08503A0319BD01B6
:1000E800A0303D07840083130008AA00FE3A031DD0
:1000F8009D283C083D0603197D28BD0A3D08503A55
:100108000319BD01A0303D07840083130008AA002D
:100118002A0E0F39033A031993282A08EA232A0BCF
:100128009728AB016B28AA1F6B287F302A05AB00E4
:100138006B282A087C3A031DB2283C083D0603199F
:10014800A128BD0A3D08503A0319BD01A0303D075A
:10015800840083130008AA0086216B282A08083A1D
:10016800031D3A29403031072B06031DC6283903E1
:100178003107EA232030C12339033107EA23350345
:10018800AB006B282B083106031DDB283803310729
:10019800EA232030C12338033107EA233403AB00B4
:1001A80012302B0784008313203080006B282B0823
:1001B800403A031DF02837033107EA232030C123D2
:1001C80037033107EA233303AB003E302B078400A3
:1001D8008313203080006B28AB08031D1A29320BCB
:1001E800002937033107EA232030C12337033107B9
:1001F800EA233303AB006B283208023A031D0F29A8
:1002080038033107EA232030C12338033107EA23B2
:100218003403AB006B283A033107EA232030C123AB
:100228003A033107EA233603AB006B281030EA2380
:100238002030C1231030EA23AB0310302B020318FF
:100248002B293E302B078400831320308000403058
:100258002B02031C6B2850302B0203186B2812301A
:100268002B0784008313203080006B282A08C123C1
:1002780010302B02031846293E302B0784008313C5
:100288002A08800040302B02031C542950302B02CE
:100298000318542912302B07840083132A0880007E
:1002A800AB0A2B083306031D6429320B5F29AB0107
:1002B8003708EA236B284030AB003808EA236B285C
:1002C8002B083406031D75293208023A031D7029CC
:1002D800AB013708EA236B283108AB003908EA2359
:1002E8006B282B083506031D7E293408AB003A0815
:1002F800EA236B282B083606031D6B28AB01370849
:10030800EA236B282A0B8E291E30AE00A500033085
:1003180079244C2A2A08023A031D9829AE012E088E
:10032800A500033079244C2A2A08033A031DA22980
:100338001430B100A500013079244C2A2A08043A67
:10034800031DAC291030B100A500013079244C2AD6
:100358002A08053A031DB6290430B200A500023068
:1003680079244C2A2A08063A031DBF290230B20014
:10037800A50079244C2A2A08073A031DC929013007
:10038800B200A500023079244C2A2A08083A031D35
:10039800CF2989224C2A2A08093A031DDE292C0B69
:1003A800D729AC01D9290130AC002C08A5000430AC
:1003B80079244C2A2A080A3A031DFB29A301103084
:1003C800230203184C2A3E302307840083130008B5
:1003D800A5000530230779245230230784008313AE
:1003E8000008A500193023077924A30AE3292A085D
:1003F8000B3A031D062ABB0120243B08A5002D301B
:1004080079244C2A2A080C3A031D122A0130BB0011
:1004180020243B08A5002D3079244C2A2A080D3ABF
:10042800031D1E2A0230BB0020243B08A5002D30E6
:1004380079244C2A2A080E3A031D2A2A0330BB00C5
:1004480020243B08A5002D3079244C2A2A080F3A8D
:10045800031D362A0430BB0020243B08A5002D309C
:1004680079244C2A2A08103A031D422A0530BB0079
:1004780020243B08A5002D3079244C2A80302A02FC
:10048800031C4C2A1F302A05AE00A500033079242E
:100498003108B30040303107B40031083107B500E6
:1004A800403031073107B6008030B700C030B8009F
:1004B80080303104B900403031078038BA00080074
:1004C8009B01103083128500E0308316850083126B
:1004D8008601E430831686008312BD01BC014030DA
:1004E8008316990024309800903083129800831660
:1004F800181583128C1283168C160B175130810035
:100508008B168B178922831608008312AB2385105C
:1005180085116430A500A601572403308600051410
:1005280005103230A500A6015724033086000514B3
:1005380005100A30A500A6015724033086000514CB
:1005480005100A30A500A6015724023086000514BC
:1005580005100C30EA230130EA2300306F24AF0085
:1005680002302F02031CBA2A0130AF002F08A50061
:10057800003079242F08031D0515031905110330D0
:100588006F24AE001F302E02031CCC2A1E30AE0092
:100598002E08A5000330792401306F24B1005130B2
:1005A8003102031CD92A1030B1003108A5000130EE
:1005B80079243108B30040303107B40031083107DD
:1005C800B500403031073107B6008030B700C03081
:1005D800B80080303104B900403031078038BA00A3
:1005E800FB2A0230B200082B0430B200082B02307C
:1005F8006F24B20009303202031C042B0230B2000F
:100608003208A5000230792404306F24AC0002308F
:100618002C02031C112B0130AC002C08A50004305F
:100628007924AC08031D3F2BE830A5000330A60051
:100638005724BC0803193A2B831621088312A400F7
:10064800123A031D382B0230BB0020243B08A500BA
:100658002D3079241D30A5001224E830A500033080
:10066800A60057240130EA23BC01962B2D306F24B5
:10067800BB002024962B2C0B962B05306F24A4004E
:10068800240A0319672BA401103024020318522BE3
:10069800053024076F24C123A40A482BC030EA235D
:1006A800A4011030240203185F2B193024076F248B
:1006B800C123A40A552BE830A5000330A60057240F
:1006C8000130EA23752BA5011224C030EA230F302C
:1006D800A5001224E830A5000330A60057240130F5
:1006E800EA23BC080319922B831621088312A4005D
:1006F800123A031D902B0230BB0020243B08A500B2
:100708002D3079241D30A5001224E830A5000330CF
:10071800A60057240130EA23BC01962B2D306F2404
:10072800BB002024A401103024020318A92B3E305A
:10073800240784008313203080005230240784006B
:10074800831320308000A40A972BAB0108002914DA
:100758003F3083168600831285158510291CBC2B13
:1007680005142910061A2914051005140510B22BB2
:1007780024308316860083120800A700AB23851156
:100788008514271E0610271A0614A71E8610A71AF6
:100798008614271F8611271B8615A71F0612A71B5D
:1007A800061605140510271C061027180614A71C82
:1007B8008610A7188614271D861127198615A71DC8
:1007C8000612A7190616051405100800A500AB2384
:1007D8008511251E0610251A0614A51E8610A51AB1
:1007E8008614251F8611251B8615A51F0612A51B15
:1007F800061605140510251C061025180614A51C38
:100808008610A5188614251D861125198615A51D7F
:100818000612A5190616051405100800A6012608D3
:1008280025073420003A03191F2C260825073420F1
:10083800C123A60A132C0800BB08031D272CFF3070
:1008480083169900552C3B0B2D2C8030831699006C
:10085800552C3B08023A031D352C4030831699006D
:10086800552C3B08033A031D3D2C2B308316990069
:10087800552C3B08043A031D452C1F30831699005C
:10088800552C3B08053A031D4D2C0F308316990053
:10089800552C40308316990002308312A5002D3064
:1008A8007924831208002508260403196E2CA70151
:1008B800043027020318692CA801453028020318C0
:1008C800672CA80A612CA70A5C2CA503250A031922
:1008D800A603572C0800A50003178D0083168C1358
:1008E8000C1483120C0803130800A60027108B1B96
:1008F80027140D1203178D000313250803178C0006
:1009080083168C130C158B1355308D00AA308D006F
:100918008C14831203130D1E8F2C831603170C11CE
:0E09280083120313271C8B1327188B1708004C
:02400E00023F6F
:00000001FF
